{
  "_format": "hh-sol-artifact-1",
  "contractName": "NFTMarket",
  "sourceName": "contracts/NFTMarket.sol",
  "abi": [
    {
      "inputs": [],
      "stateMutability": "nonpayable",
      "type": "constructor"
    },
    {
      "anonymous": false,
      "inputs": [
        {
          "indexed": true,
          "internalType": "uint256",
          "name": "itemId",
          "type": "uint256"
        },
        {
          "indexed": true,
          "internalType": "address",
          "name": "nftContract",
          "type": "address"
        },
        {
          "indexed": true,
          "internalType": "uint256",
          "name": "tokenId",
          "type": "uint256"
        },
        {
          "indexed": false,
          "internalType": "address",
          "name": "seller",
          "type": "address"
        },
        {
          "indexed": false,
          "internalType": "address",
          "name": "owner",
          "type": "address"
        },
        {
          "indexed": false,
          "internalType": "uint256",
          "name": "price",
          "type": "uint256"
        },
        {
          "indexed": false,
          "internalType": "bool",
          "name": "sold",
          "type": "bool"
        }
      ],
      "name": "MarketItemCreated",
      "type": "event"
    },
    {
      "inputs": [
        {
          "internalType": "address",
          "name": "nftContract",
          "type": "address"
        },
        {
          "internalType": "uint256",
          "name": "tokenId",
          "type": "uint256"
        },
        {
          "internalType": "uint256",
          "name": "price",
          "type": "uint256"
        }
      ],
      "name": "createMarketItem",
      "outputs": [],
      "stateMutability": "payable",
      "type": "function"
    },
    {
      "inputs": [
        {
          "internalType": "address",
          "name": "nftContract",
          "type": "address"
        },
        {
          "internalType": "uint256",
          "name": "itemId",
          "type": "uint256"
        }
      ],
      "name": "createMarketSale",
      "outputs": [],
      "stateMutability": "payable",
      "type": "function"
    },
    {
      "inputs": [],
      "name": "fetchItemsCreated",
      "outputs": [
        {
          "components": [
            {
              "internalType": "uint256",
              "name": "itemId",
              "type": "uint256"
            },
            {
              "internalType": "address",
              "name": "nftContract",
              "type": "address"
            },
            {
              "internalType": "uint256",
              "name": "tokenId",
              "type": "uint256"
            },
            {
              "internalType": "address payable",
              "name": "seller",
              "type": "address"
            },
            {
              "internalType": "address payable",
              "name": "owner",
              "type": "address"
            },
            {
              "internalType": "uint256",
              "name": "price",
              "type": "uint256"
            },
            {
              "internalType": "bool",
              "name": "sold",
              "type": "bool"
            }
          ],
          "internalType": "struct NFTMarket.MarketItem[]",
          "name": "",
          "type": "tuple[]"
        }
      ],
      "stateMutability": "view",
      "type": "function"
    },
    {
      "inputs": [],
      "name": "fetchMarketItems",
      "outputs": [
        {
          "components": [
            {
              "internalType": "uint256",
              "name": "itemId",
              "type": "uint256"
            },
            {
              "internalType": "address",
              "name": "nftContract",
              "type": "address"
            },
            {
              "internalType": "uint256",
              "name": "tokenId",
              "type": "uint256"
            },
            {
              "internalType": "address payable",
              "name": "seller",
              "type": "address"
            },
            {
              "internalType": "address payable",
              "name": "owner",
              "type": "address"
            },
            {
              "internalType": "uint256",
              "name": "price",
              "type": "uint256"
            },
            {
              "internalType": "bool",
              "name": "sold",
              "type": "bool"
            }
          ],
          "internalType": "struct NFTMarket.MarketItem[]",
          "name": "",
          "type": "tuple[]"
        }
      ],
      "stateMutability": "view",
      "type": "function"
    },
    {
      "inputs": [],
      "name": "fetchMyNFTs",
      "outputs": [
        {
          "components": [
            {
              "internalType": "uint256",
              "name": "itemId",
              "type": "uint256"
            },
            {
              "internalType": "address",
              "name": "nftContract",
              "type": "address"
            },
            {
              "internalType": "uint256",
              "name": "tokenId",
              "type": "uint256"
            },
            {
              "internalType": "address payable",
              "name": "seller",
              "type": "address"
            },
            {
              "internalType": "address payable",
              "name": "owner",
              "type": "address"
            },
            {
              "internalType": "uint256",
              "name": "price",
              "type": "uint256"
            },
            {
              "internalType": "bool",
              "name": "sold",
              "type": "bool"
            }
          ],
          "internalType": "struct NFTMarket.MarketItem[]",
          "name": "",
          "type": "tuple[]"
        }
      ],
      "stateMutability": "view",
      "type": "function"
    },
    {
      "inputs": [],
      "name": "getListingPrice",
      "outputs": [
        {
          "internalType": "uint256",
          "name": "",
          "type": "uint256"
        }
      ],
      "stateMutability": "view",
      "type": "function"
    }
  ],
  "bytecode": "0x60806040526658d15e1762800060045534801561001b57600080fd5b50600160008190555033600360006101000a81548173ffffffffffffffffffffffffffffffffffffffff021916908373ffffffffffffffffffffffffffffffffffffffff1602179055506118ca806100746000396000f3fe6080604052600436106100555760003560e01c80630f08efe01461005a57806312e8558514610085578063202e3740146100b057806358eb2df5146100db578063c23b139e146100f7578063f064c32e14610113575b600080fd5b34801561006657600080fd5b5061006f61013e565b60405161007c9190611513565b60405180910390f35b34801561009157600080fd5b5061009a610469565b6040516100a791906115b5565b60405180910390f35b3480156100bc57600080fd5b506100c5610473565b6040516100d29190611513565b60405180910390f35b6100f560048036038101906100f091906112a3565b610823565b005b610111600480360381019061010c9190611267565b610b2f565b005b34801561011f57600080fd5b50610128610de8565b6040516101359190611513565b60405180910390f35b6060600061014c6001611198565b9050600061015a6002611198565b6101646001611198565b61016e9190611670565b90506000808267ffffffffffffffff8111156101b3577f4e487b7100000000000000000000000000000000000000000000000000000000600052604160045260246000fd5b6040519080825280602002602001820160405280156101ec57816020015b6101d96111bc565b8152602001906001900390816101d15790505b50905060005b8481101561045e57600073ffffffffffffffffffffffffffffffffffffffff1660056000600184610223919061161a565b815260200190815260200160002060040160009054906101000a900473ffffffffffffffffffffffffffffffffffffffff1673ffffffffffffffffffffffffffffffffffffffff16141561044b57600060056000600184610284919061161a565b81526020019081526020016000206000015490506000600560008381526020019081526020016000209050806040518060e0016040529081600082015481526020016001820160009054906101000a900473ffffffffffffffffffffffffffffffffffffffff1673ffffffffffffffffffffffffffffffffffffffff1673ffffffffffffffffffffffffffffffffffffffff168152602001600282015481526020016003820160009054906101000a900473ffffffffffffffffffffffffffffffffffffffff1673ffffffffffffffffffffffffffffffffffffffff1673ffffffffffffffffffffffffffffffffffffffff1681526020016004820160009054906101000a900473ffffffffffffffffffffffffffffffffffffffff1673ffffffffffffffffffffffffffffffffffffffff1673ffffffffffffffffffffffffffffffffffffffff168152602001600582015481526020016006820160009054906101000a900460ff16151515158152505084868151811061042f577f4e487b7100000000000000000000000000000000000000000000000000000000600052603260045260246000fd5b60200260200101819052508480610445906116fe565b95505050505b8080610456906116fe565b9150506101f2565b508094505050505090565b6000600454905090565b606060006104816001611198565b905060008060005b8381101561052a573373ffffffffffffffffffffffffffffffffffffffff16600560006001846104b9919061161a565b815260200190815260200160002060040160009054906101000a900473ffffffffffffffffffffffffffffffffffffffff1673ffffffffffffffffffffffffffffffffffffffff16141561051757600183610514919061161a565b92505b8080610522906116fe565b915050610489565b5060008267ffffffffffffffff81111561056d577f4e487b7100000000000000000000000000000000000000000000000000000000600052604160045260246000fd5b6040519080825280602002602001820160405280156105a657816020015b6105936111bc565b81526020019060019003908161058b5790505b50905060005b84811015610818573373ffffffffffffffffffffffffffffffffffffffff16600560006001846105dc919061161a565b815260200190815260200160002060040160009054906101000a900473ffffffffffffffffffffffffffffffffffffffff1673ffffffffffffffffffffffffffffffffffffffff1614156108055760006005600060018461063d919061161a565b81526020019081526020016000206000015490506000600560008381526020019081526020016000209050806040518060e0016040529081600082015481526020016001820160009054906101000a900473ffffffffffffffffffffffffffffffffffffffff1673ffffffffffffffffffffffffffffffffffffffff1673ffffffffffffffffffffffffffffffffffffffff168152602001600282015481526020016003820160009054906101000a900473ffffffffffffffffffffffffffffffffffffffff1673ffffffffffffffffffffffffffffffffffffffff1673ffffffffffffffffffffffffffffffffffffffff1681526020016004820160009054906101000a900473ffffffffffffffffffffffffffffffffffffffff1673ffffffffffffffffffffffffffffffffffffffff1673ffffffffffffffffffffffffffffffffffffffff168152602001600582015481526020016006820160009054906101000a900460ff1615151515815250508486815181106107e8577f4e487b7100000000000000000000000000000000000000000000000000000000600052603260045260246000fd5b6020026020010181905250600185610800919061161a565b945050505b8080610810906116fe565b9150506105ac565b508094505050505090565b60026000541415610869576040517f08c379a000000000000000000000000000000000000000000000000000000000815260040161086090611575565b60405180910390fd5b6002600081905550600081116108b4576040517f08c379a00000000000000000000000000000000000000000000000000000000081526004016108ab90611595565b60405180910390fd5b60045434146108f8576040517f08c379a00000000000000000000000000000000000000000000000000000000081526004016108ef90611555565b60405180910390fd5b61090260016111a6565b600061090e6001611198565b90506040518060e001604052808281526020018573ffffffffffffffffffffffffffffffffffffffff1681526020018481526020013373ffffffffffffffffffffffffffffffffffffffff168152602001600073ffffffffffffffffffffffffffffffffffffffff16815260200183815260200160001515815250600560008381526020019081526020016000206000820151816000015560208201518160010160006101000a81548173ffffffffffffffffffffffffffffffffffffffff021916908373ffffffffffffffffffffffffffffffffffffffff1602179055506040820151816002015560608201518160030160006101000a81548173ffffffffffffffffffffffffffffffffffffffff021916908373ffffffffffffffffffffffffffffffffffffffff16021790555060808201518160040160006101000a81548173ffffffffffffffffffffffffffffffffffffffff021916908373ffffffffffffffffffffffffffffffffffffffff16021790555060a0820151816005015560c08201518160060160006101000a81548160ff0219169083151502179055509050508373ffffffffffffffffffffffffffffffffffffffff166323b872dd3330866040518463ffffffff1660e01b8152600401610aef939291906114dc565b600060405180830381600087803b158015610b0957600080fd5b505af1158015610b1d573d6000803e3d6000fd5b50505050506001600081905550505050565b60026000541415610b75576040517f08c379a0000000000000000000000000000000000000000000000000000000008152600401610b6c90611575565b60405180910390fd5b6002600081905550600060056000838152602001908152602001600020600501549050600060056000848152602001908152602001600020600201549050813414610bf5576040517f08c379a0000000000000000000000000000000000000000000000000000000008152600401610bec90611535565b60405180910390fd5b6005600084815260200190815260200160002060030160009054906101000a900473ffffffffffffffffffffffffffffffffffffffff1673ffffffffffffffffffffffffffffffffffffffff166108fc349081150290604051600060405180830381858888f19350505050158015610c71573d6000803e3d6000fd5b508373ffffffffffffffffffffffffffffffffffffffff166323b872dd3033846040518463ffffffff1660e01b8152600401610caf939291906114dc565b600060405180830381600087803b158015610cc957600080fd5b505af1158015610cdd573d6000803e3d6000fd5b50505050336005600085815260200190815260200160002060040160006101000a81548173ffffffffffffffffffffffffffffffffffffffff021916908373ffffffffffffffffffffffffffffffffffffffff16021790555060016005600085815260200190815260200160002060060160006101000a81548160ff021916908315150217905550610d6f60026111a6565b600360009054906101000a900473ffffffffffffffffffffffffffffffffffffffff1673ffffffffffffffffffffffffffffffffffffffff166108fc6004549081150290604051600060405180830381858888f19350505050158015610dd9573d6000803e3d6000fd5b50505060016000819055505050565b60606000610df66001611198565b905060008060005b83811015610e9f573373ffffffffffffffffffffffffffffffffffffffff1660056000600184610e2e919061161a565b815260200190815260200160002060030160009054906101000a900473ffffffffffffffffffffffffffffffffffffffff1673ffffffffffffffffffffffffffffffffffffffff161415610e8c57600183610e89919061161a565b92505b8080610e97906116fe565b915050610dfe565b5060008267ffffffffffffffff811115610ee2577f4e487b7100000000000000000000000000000000000000000000000000000000600052604160045260246000fd5b604051908082528060200260200182016040528015610f1b57816020015b610f086111bc565b815260200190600190039081610f005790505b50905060005b8481101561118d573373ffffffffffffffffffffffffffffffffffffffff1660056000600184610f51919061161a565b815260200190815260200160002060030160009054906101000a900473ffffffffffffffffffffffffffffffffffffffff1673ffffffffffffffffffffffffffffffffffffffff16141561117a57600060056000600184610fb2919061161a565b81526020019081526020016000206000015490506000600560008381526020019081526020016000209050806040518060e0016040529081600082015481526020016001820160009054906101000a900473ffffffffffffffffffffffffffffffffffffffff1673ffffffffffffffffffffffffffffffffffffffff1673ffffffffffffffffffffffffffffffffffffffff168152602001600282015481526020016003820160009054906101000a900473ffffffffffffffffffffffffffffffffffffffff1673ffffffffffffffffffffffffffffffffffffffff1673ffffffffffffffffffffffffffffffffffffffff1681526020016004820160009054906101000a900473ffffffffffffffffffffffffffffffffffffffff1673ffffffffffffffffffffffffffffffffffffffff1673ffffffffffffffffffffffffffffffffffffffff168152602001600582015481526020016006820160009054906101000a900460ff16151515158152505084868151811061115d577f4e487b7100000000000000000000000000000000000000000000000000000000600052603260045260246000fd5b6020026020010181905250600185611175919061161a565b945050505b8080611185906116fe565b915050610f21565b508094505050505090565b600081600001549050919050565b6001816000016000828254019250508190555050565b6040518060e0016040528060008152602001600073ffffffffffffffffffffffffffffffffffffffff16815260200160008152602001600073ffffffffffffffffffffffffffffffffffffffff168152602001600073ffffffffffffffffffffffffffffffffffffffff168152602001600081526020016000151581525090565b60008135905061124c81611866565b92915050565b6000813590506112618161187d565b92915050565b6000806040838503121561127a57600080fd5b60006112888582860161123d565b925050602061129985828601611252565b9150509250929050565b6000806000606084860312156112b857600080fd5b60006112c68682870161123d565b93505060206112d786828701611252565b92505060406112e886828701611252565b9150509250925092565b60006112fe8383611430565b60e08301905092915050565b611313816116b6565b82525050565b611322816116a4565b82525050565b611331816116a4565b82525050565b6000611342826115e0565b61134c81856115f8565b9350611357836115d0565b8060005b8381101561138857815161136f88826112f2565b975061137a836115eb565b92505060018101905061135b565b5085935050505092915050565b61139e816116c8565b82525050565b60006113b1604083611609565b91506113bc82611776565b604082019050919050565b60006113d4602483611609565b91506113df826117c5565b604082019050919050565b60006113f7601f83611609565b915061140282611814565b602082019050919050565b600061141a601c83611609565b91506114258261183d565b602082019050919050565b60e08201600082015161144660008501826114be565b5060208201516114596020850182611319565b50604082015161146c60408501826114be565b50606082015161147f606085018261130a565b506080820151611492608085018261130a565b5060a08201516114a560a08501826114be565b5060c08201516114b860c0850182611395565b50505050565b6114c7816116f4565b82525050565b6114d6816116f4565b82525050565b60006060820190506114f16000830186611328565b6114fe6020830185611328565b61150b60408301846114cd565b949350505050565b6000602082019050818103600083015261152d8184611337565b905092915050565b6000602082019050818103600083015261154e816113a4565b9050919050565b6000602082019050818103600083015261156e816113c7565b9050919050565b6000602082019050818103600083015261158e816113ea565b9050919050565b600060208201905081810360008301526115ae8161140d565b9050919050565b60006020820190506115ca60008301846114cd565b92915050565b6000819050602082019050919050565b600081519050919050565b6000602082019050919050565b600082825260208201905092915050565b600082825260208201905092915050565b6000611625826116f4565b9150611630836116f4565b9250827fffffffffffffffffffffffffffffffffffffffffffffffffffffffffffffffff0382111561166557611664611747565b5b828201905092915050565b600061167b826116f4565b9150611686836116f4565b92508282101561169957611698611747565b5b828203905092915050565b60006116af826116d4565b9050919050565b60006116c1826116d4565b9050919050565b60008115159050919050565b600073ffffffffffffffffffffffffffffffffffffffff82169050919050565b6000819050919050565b6000611709826116f4565b91507fffffffffffffffffffffffffffffffffffffffffffffffffffffffffffffffff82141561173c5761173b611747565b5b600182019050919050565b7f4e487b7100000000000000000000000000000000000000000000000000000000600052601160045260246000fd5b7f506c65617365207375626d6974207468652061736b696e67207072696365206960008201527f6e206f7264657220746f20636f6d706c65746520746865207075726368617365602082015250565b7f5072696365206d75737420626520657175616c20746f206c697374696e67207060008201527f7269636500000000000000000000000000000000000000000000000000000000602082015250565b7f5265656e7472616e637947756172643a207265656e7472616e742063616c6c00600082015250565b7f5072696365206d757374206265206174206c6561737420312077656900000000600082015250565b61186f816116a4565b811461187a57600080fd5b50565b611886816116f4565b811461189157600080fd5b5056fea2646970667358221220d7f22874dc4ae93bd56c6c11521f3bbd809662dbc2a936210a27346feb0e6f8464736f6c63430008040033",
  "linkReferences": {},
  "deployedLinkReferences": {}
}